:100000000C945D000C9485000C9485000C94850084
:100010000C9485000C9485000C9485000C9485004C
:100020000C9485000C9485000C9485000C9485003C
:100030000C9485000C9485000C9485000C9485002C
:100040000C942F030C9485000C94FD020C94D702A1
:100050000C9485000C9485000C9485000C9485000C
:100060000C9485000C9485000000000024002700FB
:100070002A0000000000250028002B0004040404CE
:100080000404040402020202020203030303030342
:10009000010204081020408001020408102001021F
:1000A00004081020000000080002010000030407FB
:1000B0000000000000000000B50311241FBECFEFB8
:1000C000D8E0DEBFCDBF11E0A0E0B1E0EAE2FAE0A7
:1000D00002C005900D92A831B107D9F721E0A8E13F
:1000E000B1E001C01D92A23CB207E1F710E0CDE5FE
:1000F000D0E004C02197FE010E940805CC35D1074D
:10010000C9F70E9403040C9413050C940000EEEA56
:10011000F0E09491EAE9F0E02491E6E8F0E0E4917F
:10012000EE2309F43CC0992339F1933091F038F46F
:100130009130A9F0923001F594B59F7D12C09730AF
:1001400091F09830A1F09430B9F4909180009F7DA7
:1001500003C0909180009F77909380000DC094B56C
:100160009F7794BD09C09091B0009F7703C0909194
:10017000B0009F7D9093B000F0E0EE0FFF1FEE58AF
:10018000FF4FA591B4919FB7F894811104C08C9151
:100190002095282302C0EC912E2B2C939FBF08950D
:1001A000CF92DF92EF92FF920F931F93CF93DF9343
:1001B0006C017A018B01C0E0D0E0CE15DF0581F043
:1001C000D8016D918D01D601ED91FC910190F081E6
:1001D000E02DC6010995892B11F02196EECF7E0105
:1001E000C701DF91CF911F910F91FF90EF90DF90AA
:1001F000CF900895089580E090E00895FC01538D1C
:10020000448D252F30E0842F90E0821B930B5417F0
:1002100010F0CF96089501970895FC01918D828D7D
:10022000981761F0828DDF01A80FB11D5D968C914A
:10023000928D9F5F9F73928F90E008958FEF9FEF55
:100240000895FC01918D828D981731F0828DE80F11
:10025000F11D858D90E008958FEF9FEF0895FC01CB
:10026000918D228D892F90E0805C9F4F821B910998
:100270008F739927089581E291E00E942F0121E078
:10028000892B09F420E0822F0895FC01848DDF0181
:10029000A80FB11DA35ABF4F2C91848D90E00196F9
:1002A0008F739927848FA689B7892C93A089B189E8
:1002B0008C91837080648C93938D848D981306C089
:1002C0000288F389E02D80818F7D80830895EF92ED
:1002D000FF920F931F93CF93DF93EC0181E0888F00
:1002E0009B8D8C8D981305C0E889F989808185FDE7
:1002F00026C0F62E0B8D10E00F5F1F4F0F731127D6
:10030000E02E8C8DE8120CC00FB607FCFACFE889FE
:10031000F989808185FFF5CFCE010E944501F1CF9B
:100320008B8DFE01E80FF11DE35AFF4FF0829FB75E
:10033000F8940B8FEA89FB89808180620AC09FB79D
:10034000F894EE89FF896083E889F9898081837058
:10035000806480839FBF81E090E0DF91CF911F9107
:100360000F91FF90EF900895CF93DF93EC01888D6C
:100370008823C9F0EA89FB89808185FD05C0A889A9
:10038000B9898C9186FD0FC00FB607FCF5CF80812F
:1003900085FFF2CFA889B9898C9185FFEDCFCE0179
:1003A0000E944501E7CFDF91CF91089580E090E072
:1003B000892B29F00E943B0181110C9400000895C3
:1003C0003FB7F89480911D0190911E01A0911F01EB
:1003D000B091200126B5A89B05C02F3F19F00196CA
:1003E000A11DB11D3FBFBA2FA92F982F8827820FBB
:1003F000911DA11DB11DBC01CD0142E0660F771F0B
:10040000881F991F4A95D1F70895CF93DF931F92C4
:10041000CDB7DEB7898389818EBD0DB407FEFDCFD0
:100420008EB50F90DF91CF9108951F93CF93DF93F7
:10043000D82F162FC42F80E00E94870028E0C29F8B
:10044000C0011124812B90E1D99F90011124822BAE
:100450000E94050281E0DF91CF911F910C948700EB
:10046000CF9341E0682F80E00E94150280E00E9457
:10047000870080E00E940502C82F81E00E9487006B
:100480008C2F8095881F8827881FCF910895CF9340
:10049000C82F40E0682F82E00E94150280E00E9491
:1004A00087008BE00E94050281E00E94870040E007
:1004B0006C2F81E00E94150280E00E94870084E496
:1004C0000E94050281E00E9487008C2F0E9430026A
:1004D0008823D9F3CF910895CF93DF9380E00E94D2
:1004E000870080E00E940502D82F80E00E9405026C
:1004F000C82F81E00E9487008C2F90E09D2BDF9118
:10050000CF910895009769F0FC0101900020E9F770
:100510003197AF01481B590BBC0181E291E00C946B
:10052000D00080E090E008958F929F92AF92BF92AA
:100530000F931F93CF93DF93CDB7DEB7A1970FB67D
:10054000F894DEBF0FBECDBF19A2423008F44AE0D6
:100550008E010F5D1F4F842E912CA12CB12CA50173
:1005600094010E94E604E62FB901CA010150110965
:10057000EA3014F4E05D01C0E95CD801EC93232B70
:10058000242B252B61F7C8010E948202A1960FB689
:10059000F894DEBF0FBECDBFDF91CF911F910F91B9
:1005A000BF90AF909F908F9008950E940E051F926C
:1005B0000F920FB60F9211242F933F934F935F9397
:1005C0006F937F938F939F93AF93BF93EF93FF931B
:1005D00081E291E00E944501FF91EF91BF91AF91BF
:1005E0009F918F917F916F915F914F913F912F914B
:1005F0000F900FBE0F901F9018951F920F920FB67D
:100600000F9211242F938F939F93EF93FF93E09179
:100610003101F09132018081E0913701F091380190
:1006200082FD12C0908180913A018F5F8F7320917B
:100630003B01821751F0E0913A01F0E0EF5DFE4F8F
:10064000958F80933A0101C08081FF91EF919F9136
:100650008F912F910F900FBE0F901F9018951F92A2
:100660000F920FB60F9211242F933F938F939F9366
:10067000AF93BF938091190190911A01A0911B0132
:10068000B0911C013091180123E0230F2D3720F485
:100690000196A11DB11D05C026E8230F0296A11DDC
:1006A000B11D209318018093190190931A01A09312
:1006B0001B01B0931C0180911D0190911E01A0911E
:1006C0001F01B09120010196A11DB11D80931D0154
:1006D00090931E01A0931F01B0932001BF91AF9191
:1006E0009F918F913F912F910F900FBE0F901F9070
:1006F0001895CF93DF9390E0FC01E057FF4F2491D2
:10070000FC01E458FF4F8491882361F190E0880F49
:10071000991FFC01E859FF4FC591D491FC01EE5897
:10072000FF4FA591B491611109C09FB7F8948881DA
:10073000209582238883EC912E230BC0623061F4D4
:100740009FB7F8948881322F309583238883EC916A
:100750002E2B2C939FBF06C08FB7F894E8812E2BC9
:1007600028838FBFDF91CF910895E1E2F1E01382FA
:10077000128288EE93E0A0E0B0E084839583A683A4
:10078000B78384E091E09183808385EC90E0958746
:10079000848784EC90E09787868780EC90E0918B4B
:1007A000808B81EC90E0938B828B82EC90E0958B38
:1007B000848B86EC90E0978B868B118E128E138E35
:1007C000148E80E090E0A0E8B7E48093BE0190939F
:1007D000BF01A093C001B093C10161E08BE00E9412
:1007E000790360E08CE00E94790361E08DE00E9473
:1007F000790361E08AE00E94790381E00E9487002A
:100800008FE58CBD0895789484B5826084BD84B5ED
:10081000816084BD85B5826085BD85B5816085BDFB
:1008200080916E00816080936E00109281008091B3
:10083000810082608093810080918100816080933B
:100840008100809180008160809380008091B10060
:1008500084608093B1008091B00081608093B0008B
:1008600080917A00846080937A0080917A0082601F
:1008700080937A0080917A00816080937A008091E1
:100880007A00806880937A001092C10080E00E9414
:100890008700C4E6D0E08FEF0E9405022197D9F7C8
:1008A00081E00E94870080E00E94470281E00E9470
:1008B0004702E0913101F091320182E08083E091C2
:1008C0002D01F0912E011082E0912F01F091300165
:1008D0008FEC808310923901E0913501F09136015F
:1008E00086E08083E0913301F09134018081806162
:1008F0008083E0913301F0913401808188608083AE
:10090000E0913301F0913401808180688083E0912F
:100910003301F091340180818F7D808380E00E94DB
:1009200030028823D9F341E060E083E00E941502A1
:100930000E946C026C0181E00E9430028823D9F38E
:1009400041E061E083E00E9415020E946C027C019C
:10095000B60180E090E04AE00E94940282E191E0DA
:100960000E948202B70180E090E04AE00E94940277
:1009700084E191E00E9482020E94E0016B017C010F
:1009800088EE882E83E0982EA12CB12C0E94E001E5
:10099000DC01CB018C199D09AE09BF09883E93404B
:1009A000A105B10598F321E0821A9108A108B108C8
:1009B00088EEC80E83E0D81EE11CF11C811491045E
:1009C000A104B10419F70E94D601A8CFA1E21A2E02
:1009D000AA1BBB1BFD010DC0AA1FBB1FEE1FFF1FE3
:1009E000A217B307E407F50720F0A21BB30BE40B33
:1009F000F50B661F771F881F991F1A9469F760957A
:100A00007095809590959B01AC01BD01CF01089533
:100A1000EE0FFF1F0590F491E02D099481E090E026
:0A0A2000F8940C941305F894FFCF2E
:100A2A00000000006701D000FE00B4012F010D0193
:080A3A0021013A000D0A000041
:00000001FF
