:100000000C945D000C9485000C9485000C94850084
:100010000C9485000C9485000C9485000C9485004C
:100020000C9485000C9485000C9485000C9485003C
:100030000C9485000C9485000C9485000C9485002C
:100040000C941F020C9485000C948F020C9469028E
:100050000C9485000C9485000C9485000C9485000C
:100060000C9485000C9485000000000024002700FB
:100070002A0000000000250028002B0004040404CE
:100080000404040402020202020203030303030342
:10009000010204081020408001020408102001021F
:1000A00004081020000000080002010000030407FB
:1000B0000000000000000000FD0211241FBECFEF71
:1000C000D8E0DEBFCDBF11E0A0E0B1E0EAE3FEE0A2
:1000D00002C005900D92A232B107D9F721E0A2E249
:1000E000B1E001C01D92AC3CB207E1F710E0CDE5F4
:1000F000D0E004C02197FE010E941007CC35D10743
:10010000C9F70E944B030C941B070C940000EEEA05
:10011000F0E09491EAE9F0E02491E6E8F0E0E4917F
:10012000EE2309F43CC0992339F1933091F038F46F
:100130009130A9F0923001F594B59F7D12C09730AF
:1001400091F09830A1F09430B9F4909180009F7DA7
:1001500003C0909180009F77909380000DC094B56C
:100160009F7794BD09C09091B0009F7703C0909194
:10017000B0009F7D9093B000F0E0EE0FFF1FEE58AF
:10018000FF4FA591B4919FB7F894811104C08C9151
:100190002095282302C0EC912E2B2C939FBF08950D
:1001A000CF92DF92EF92FF920F931F93CF93DF9343
:1001B0006C017A018B01C0E0D0E0CE15DF0581F043
:1001C000D8016D918D01D601ED91FC910190F081E6
:1001D000E02DC6010995892B11F02196EECF7E0105
:1001E000C701DF91CF911F910F91FF90EF90DF90AA
:1001F000CF900895089580E090E00895FC01538D1C
:10020000448D252F30E0842F90E0821B930B5417F0
:1002100010F0CF96089501970895FC01918D828D7D
:10022000981761F0828DDF01A80FB11D5D968C914A
:10023000928D9F5F9F73928F90E008958FEF9FEF55
:100240000895FC01918D828D981731F0828DE80F11
:10025000F11D858D90E008958FEF9FEF0895FC01CB
:10026000918D228D892F90E0805C9F4F821B910998
:100270008F73992708958BE291E00E942F0121E06E
:10028000892B09F420E0822F0895FC01848DDF0181
:10029000A80FB11DA35ABF4F2C91848D90E00196F9
:1002A0008F739927848FA689B7892C93A089B189E8
:1002B0008C91837080648C93938D848D981306C089
:1002C0000288F389E02D80818F7D80830895EF92ED
:1002D000FF920F931F93CF93DF93EC0181E0888F00
:1002E0009B8D8C8D981305C0E889F989808185FDE7
:1002F00026C0F62E0B8D10E00F5F1F4F0F731127D6
:10030000E02E8C8DE8120CC00FB607FCFACFE889FE
:10031000F989808185FFF5CFCE010E944501F1CF9B
:100320008B8DFE01E80FF11DE35AFF4FF0829FB75E
:10033000F8940B8FEA89FB89808180620AC09FB79D
:10034000F894EE89FF896083E889F9898081837058
:10035000806480839FBF81E090E0DF91CF911F9107
:100360000F91FF90EF900895CF93DF93EC01888D6C
:100370008823C9F0EA89FB89808185FD05C0A889A9
:10038000B9898C9186FD0FC00FB607FCF5CF80812F
:1003900085FFF2CFA889B9898C9185FFEDCFCE0179
:1003A0000E944501E7CFDF91CF91089580E090E072
:1003B000892B29F00E943B0181110C9400000895C3
:1003C000CF93DF931F92CDB7DEB7898389818EBD2E
:1003D0000DB407FEFDCF8EB50F90DF91CF9108953C
:1003E000CF9380E00E94870088E00E94E00181E0D6
:1003F0000E94870080E00E94870080E00E94E00168
:10040000C82F81E00E9487008C2F8095881F882745
:10041000881FCF910895009769F0FC01019000209A
:10042000E9F73197AF01481B590BBC018BE291E012
:100430000C94D00080E090E008950E9416071F926F
:100440000F920FB60F9211242F933F938F939F9388
:10045000AF93BF938091270190912801A09129012A
:10046000B0912A013091260123E0230F2D3720F48B
:100470000196A11DB11D05C026E8230F0296A11DFE
:10048000B11D209326018093270190932801A0930A
:100490002901B0932A018091220190912301A0911A
:1004A0002401B09125010196A11DB11D8093220167
:1004B00090932301A0932401B0932501BF91AF91A4
:1004C0009F918F913F912F910F900FBE0F901F9092
:1004D00018951F920F920FB60F9211242F933F93EE
:1004E0004F935F936F937F938F939F93AF93BF933C
:1004F000EF93FF938BE291E00E944501FF91EF9112
:10050000BF91AF919F918F917F916F915F914F912B
:100510003F912F910F900FBE0F901F9018951F9233
:100520000F920FB60F9211242F938F939F93EF93F7
:10053000FF93E0913B01F0913C018081E09141010A
:10054000F091420182FD12C09081809144018F5F41
:100550008F7320914501821751F0E0914401F0E042
:10056000E55DFE4F958F8093440101C08081FF912E
:10057000EF919F918F912F910F900FBE0F901F9031
:100580001895CF93DF9390E0FC01E057FF4F249143
:10059000FC01E458FF4F8491882361F190E0880FBB
:1005A000991FFC01E859FF4FC591D491FC01EE5809
:1005B000FF4FA591B491611109C09FB7F89488814C
:1005C000209582238883EC912E230BC0623061F446
:1005D0009FB7F8948881322F309583238883EC91DC
:1005E0002E2B2C939FBF06C08FB7F894E8812E2B3B
:1005F00028838FBFDF91CF910895EBE2F1E0138262
:10060000128288EE93E0A0E0B0E084839583A68315
:10061000B78384E091E09183808385EC90E09587B7
:10062000848784EC90E09787868780EC90E0918BBC
:10063000808B81EC90E0938B828B82EC90E0958BA9
:10064000848B86EC90E0978B868B118E128E138EA6
:10065000148E80E090E0A0E2B0E48093C801909313
:10066000C901A093CA01B093CB0161E08BE00E9465
:10067000C10260E08CE00E94C10261E08DE00E9456
:10068000C10261E08AE00E94C10281E00E9487000D
:100690008FE58CBD0895CF93DF93CDB7DEB7A197DB
:1006A0000FB6F894DEBF0FBECDBF789484B58260DC
:1006B00084BD84B5816084BD85B5826085BD85B506
:1006C000816085BD80916E00816080936E00109284
:1006D00081008091810082608093810080918100FF
:1006E0008160809381008091800081608093800090
:1006F0008091B10084608093B1008091B0008160EE
:100700008093B00080917A00846080937A00809119
:100710007A00826080937A0080917A008160809371
:100720007A0080917A00806880937A001092C100EC
:10073000E0913B01F0913C0182E08083E091370140
:10074000F09138011082E0913901F0913A018FEC7B
:10075000808310924301E0913F01F091400186E0D7
:100760008083E0913D01F0913E0180818061808332
:10077000E0913D01F0913E01808188608083E091AD
:100780003D01F0913E01808180688083E0913D01D0
:10079000F0913E0180818F7D808380E00E94870000
:1007A00004E610E08FEF0E94E00101501109D1F73B
:1007B00081E00E94870080E00E94870080E20E9422
:1007C000E00181E00E94870080E00E9487008BE0CA
:1007D0000E94E00181E00E94870080E00E94870083
:1007E00080E10E94E00181E00E94870080E00E9499
:1007F000870084E40E94E00181E00E9487000E945B
:10080000F0018823E1F305EF11E0C12CD12C760132
:100810000150110999F10E94F0018823E1F380E071
:100820000E94870088E30E94E00181E00E94870027
:1008300080E00E94870080E00E94E001B82E80E006
:100840000E94E001A82E81E00E9487006A2D70E0DE
:100850007B2980E090E00E94C5054B015C01C70147
:10086000B6010E94C5059B01AC01C501B4010E94FF
:1008700025050E9496056B017C01CACFC701B60110
:1008800024EF31E040E050E00E94EE06CA01B901D9
:100890000E94C50520EA30E040EA58E30E947C0649
:1008A0006B017C014B015C019B01AC010E94E906DC
:1008B000882319F082E191E01AC026013701E894FB
:1008C00077F82FEF3FEF4FE75FE7C301B2010E94D8
:1008D000E90681110FC02FEF3FEF4FE75FE7C3013C
:1008E000B2010E94910518162CF486E191E00E9455
:1008F0000B029EC02FEF3FEF4FE75FE4C701B60149
:100900000E94770618161CF48AE191E0F0CF2FEFD1
:100910003FEF4FE75FECC701B6010E94910587FDED
:10092000F3CF20E030E0A901C701B6010E94910594
:1009300087FF0BC06DE28BE291E00E9467014601E8
:100940005701B7FAB094B7F8B0942AE037ED43EA0C
:100950005BE3C501B4010E9425056B017C010E9487
:1009600096054B015C010E94C5059B01AC01C701C6
:10097000B6010E9424052B013C0119A27E0181E2EF
:10098000E80EF11C1701C501B4012AE030E040E097
:1009900050E00E94EE0649015A01605DF701629342
:1009A0007F01232B242B252B71F7CF010E940B02F3
:1009B0006EE28BE291E00E94670113E01150C1F1F9
:1009C00020E030E040E251E4C301B2010E947C0625
:1009D0004B015C010E9496059B0140E050E019A28A
:1009E0007101762EC32ED42E052FCA01B9012AE03B
:1009F00030E040E050E00E94EE06605DF701629357
:100A00007F01211531054105510579F7CF010E947C
:100A10000B02672D7C2D8D2D902F0E94C5059B010B
:100A2000AC01C501B4010E9424052B013C01C6CFD5
:100A300066E78BE291E00E9467018EE191E00E94FF
:100A40000B020E94D601DFCE5058BB27AA270E9476
:100A50003C050C943D060E942F0638F00E94360695
:100A600020F039F49F3F19F426F40C942C060EF470
:100A7000E095E7FB0C942606E92F0E944E0658F3FA
:100A8000BA17620773078407950720F079F4A6F573
:100A90000C9470060EF4E0950B2EBA2FA02D0B01CE
:100AA000B90190010C01CA01A0011124FF27591BB3
:100AB00099F0593F50F4503E68F11A16F040A22FB9
:100AC000232F342F4427585FF3CF4695379527952A
:100AD000A795F0405395C9F77EF41F16BA0B620B29
:100AE000730B840BBAF09150A1F0FF0FBB1F661F70
:100AF000771F881FC2F70EC0BA0F621F731F841FB3
:100B000048F4879577956795B795F7959E3F08F0D8
:100B1000B0CF9395880F08F09927EE0F979587959A
:100B200008950E94020608F481E008950E94560686
:100B300088F09F5798F0B92F9927B751B0F0E1F09E
:100B4000660F771F881F991F1AF0BA95C9F714C04E
:100B5000B13091F00E947006B1E008950C947006D7
:100B6000672F782F8827B85F39F0B93FCCF3869587
:100B700077956795B395D9F73EF4909580957095E4
:100B800061957F4F8F4F9F4F0895E89409C097FB61
:100B90003EF490958095709561957F4F8F4F9F4F54
:100BA0009923A9F0F92F96E9BB279395F695879598
:100BB00077956795B795F111F8CFFAF4BB0F11F45B
:100BC00060FF1BC06F5F7F4F8F4F9F4F16C0882302
:100BD00011F096E911C0772321F09EE8872F762F38
:100BE00005C0662371F096E8862F70E060E02AF079
:100BF0009A95660F771F881FDAF7880F9695879565
:100C000097F90895990F0008550FAA0BE0E8FEEF39
:100C100016161706E807F907C0F012161306E407C0
:100C2000F50798F0621B730B840B950B39F40A26B9
:100C300061F0232B242B252B21F408950A2609F497
:100C4000A140A6958FEF811D811D089597F99F679B
:100C500080E870E060E008959FEF80EC0895002444
:100C60000A941616170618060906089500240A9411
:100C700012161306140605060895092E0394000C97
:100C800011F4882352F0BB0F40F4BF2B11F460FF26
:100C900004C06F5F7F4F8F4F9F4F089557FD90584F
:100CA000440F551F59F05F3F71F04795880F97FB30
:100CB000991F61F09F3F79F08795089512161306EA
:100CC0001406551FF2CF4695F1DF08C01616170619
:100CD0001806991FF1CF869571056105089408954E
:100CE000E894BB2766277727CB0197F908950E94E0
:100CF000020608F48FEF08950E948F060C943D06BB
:100D00000E942F0638F00E94360620F0952311F03D
:100D10000C9426060C942C0611240C9471060E9447
:100D20004E0670F3959FC1F3950F50E0551F629FDB
:100D3000F001729FBB27F00DB11D639FAA27F00D34
:100D4000B11DAA1F649F6627B00DA11D661F829F5B
:100D50002227B00DA11D621F739FB00DA11D621F40
:100D6000839FA00D611D221F749F3327A00D611D5D
:100D7000231F849F600D211D822F762F6A2F11243F
:100D80009F5750409AF0F1F088234AF0EE0FFF1F72
:100D9000BB1F661F771F881F91505040A9F79E3FC9
:100DA000510580F00C9426060C9471065F3FE4F325
:100DB000983ED4F3869577956795B795F795E7951F
:100DC0009F5FC1F7FE2B880F911D9695879597F928
:100DD00008950E940206880B990B0895A1E21A2E2D
:100DE000AA1BBB1BFD010DC0AA1FBB1FEE1FFF1FCF
:100DF000A217B307E407F50720F0A21BB30BE40B1F
:100E0000F50B661F771F881F991F1A9469F7609565
:100E10007095809590959B01AC01BD01CF0108951F
:100E2000EE0FFF1F0590F491E02D099481E090E012
:0A0E3000F8940C941B07F894FFCF10
:100E3A00000000006701D000FE00B4012F010D017F
:100E4A0021016E616E00696E66006F7666000D0A9A
:020E5A00000096
:107E0000112484B714BE81FFF0D085E080938100F7
:107E100082E08093C00088E18093C10086E0809377
:107E2000C20080E18093C4008EE0C9D0259A86E02C
:107E300020E33CEF91E0309385002093840096BBD3
:107E4000B09BFECF1D9AA8958150A9F7CC24DD24C4
:107E500088248394B5E0AB2EA1E19A2EF3E0BF2EE7
:107E6000A2D0813461F49FD0082FAFD0023811F036
:107E7000013811F484E001C083E08DD089C08234E0
:107E800011F484E103C0853419F485E0A6D080C0E4
:107E9000853579F488D0E82EFF2485D0082F10E0AE
:107EA000102F00270E291F29000F111F8ED06801E7
:107EB0006FC0863521F484E090D080E0DECF843638
:107EC00009F040C070D06FD0082F6DD080E0C81688
:107ED00080E7D80618F4F601B7BEE895C0E0D1E017
:107EE00062D089930C17E1F7F0E0CF16F0E7DF06D8
:107EF00018F0F601B7BEE89568D007B600FCFDCFD4
:107F0000A601A0E0B1E02C9130E011968C91119780
:107F100090E0982F8827822B932B1296FA010C0160
:107F200087BEE89511244E5F5F4FF1E0A038BF0790
:107F300051F7F601A7BEE89507B600FCFDCF97BE46
:107F4000E89526C08437B1F42ED02DD0F82E2BD052
:107F50003CD0F601EF2C8F010F5F1F4F84911BD097
:107F6000EA94F801C1F70894C11CD11CFA94CF0C13
:107F7000D11C0EC0853739F428D08EE10CD085E9AC
:107F80000AD08FE07ACF813511F488E018D01DD067
:107F900080E101D065CF982F8091C00085FFFCCF94
:107FA0009093C60008958091C00087FFFCCF809118
:107FB000C00084FD01C0A8958091C6000895E0E648
:107FC000F0E098E1908380830895EDDF803219F02E
:107FD00088E0F5DFFFCF84E1DECF1F93182FE3DFCA
:107FE0001150E9F7F2DF1F91089580E0E8DFEE27F6
:047FF000FF270994CA
:027FFE00040479
:0400000300007E007B
:00000001FF